:03000000020026D5
:07000300C28100C28000224F
:03000B00020D05DE
:0C000E00E0A3FCE0A3FDE0A3FEE0FF2265
:09001A00C281D28000D2810022D3
:03002300020B0AC3
:100026007581E1E478FFF6D8FD9017BAE493700283
:10003600804EC31392D5C31392D1FFA3E493F8B0B5
:10004600D5402130D505E4A393F5A0E420D102A341
:100056009320D507F608DFF3A380D1F208B800F69F
:1000660005A080F2E8030303541F2420F9E854078F
:10007600F8E4D333B80002800333D8FD47F780D8BD
:0600860075A0FF020996BF
:10008C00EFAFF0A4CFC5F0CF2582F582E5833FCE4C
:05009C00A42EF58322F3
:1000A100C2D1C2D5EE30E707D2D1D2D512014EEC82
:1000B10030E705B2D11201561200C930D103120145
:1000C1004E30D50312015622BC000EBE0032EF8D18
:1000D100F08420D226FFADF0227B0075F008EF2FCF
:1000E100FFEE33FEEB33FBEE9DEB9C4005FBEE9DFB
:1000F100FE0FD5F0E9E4CECDCBCC227EFF7FFF22EF
:10010100EDB410005022EE8DF084FEEF54F045F076
:10011100C48DF084C4FCEF540FC445F0C48DF08449
:10012100FFADF0E4CC4FFF22EE8DF08420D2CC7EE7
:1001310008CEC5F0CDCBEF2FFFED33FD10D7079BD8
:100141005005D5F0F1229BFD0FD5F0EA22C3E49FC3
:0D015100FFE49EFE22C3E49DFDE49CFC2221
:10015E0012000EEF4E601AE58124FEF924FEF8E738
:10016E0019477019EE33EF33B4FF030202BB0202DC
:10017E00BFE58124FDF8E63308E63380EB1202DD9D
:10018E00248150082B5008A2D50202B32B50DFF762
:10019E00FAE61846197020B7800DEE33CAA2D513B1
:1001AE00FFCA13FE0202CCEC4D703CBE8046E6FC4C
:1001BE0008E6FD08E680E4EC4D7039BE800280EE64
:1001CE00E4CEC7CDC6F5F008E4C6CCF9FBFFFA8045
:1001DE0076E4CEC9E4CDCAE4FFCCFB803CE4C9CDC5
:1001EE00CFCBECCACC8060E4F9FAFBFFCECDCCC508
:1001FE00F00880538CF0E660D8A4C5F0CDFAC5F0B7
:10020E00E6A42DCEF9C5F03400FDE6A42DC5F034DC
:10021E0000FDCCFBC5F0CC7F0008E660C0A42EC567
:10022E00F03C50010DCAFCC5F0CEE6A42AC5F03D47
:10023E0050010FC9FDC5F0CAE6A429C5F03F7901EA
:10024E00400119CBC5F0CF08E6A42AC5F03F5005F2
:10025E000BBB000109CCC5F0FAE6A42CC5F03B504F
:10026E000109CDC5F0CCE6A42DFDC5F039FE33084D
:10027E00500906B60011A2D50202B3EA33FAEC33E6
:10028E00FCED33FDEE33FEEA30E7140CBC00100D2E
:10029E00BD000C0EBE000806B60004A2D580D9E63D
:0502AE00A2D50202C60A
:1002B30074FF13FF7E80800774FF8001E4FFFEFD5F
:1002C300FC800613FFEE92E7FED0E0F8D0F0E58164
:1002D30024FCF581C0F0E8C0E022E7D2E7C7330988
:1002E300E733FB92D592D1EED2E7CE33EF33FF5013
:0402F30002B2D5225C
:1002F70012033D8000EC3392D5500312032B7A2072
:10030700C3EC20E712EF33FFEE33FEED33FDEC33A2
:10031700FC20E703DAEF22EA247DA2D513FFEC9253
:10032700E7CEFC22E4C39FFFE49EFEE49DFDE49C30
:10033700FC22C2D580C8EED2E7CE33EF3392D52464
:1003470081400CE4C2D5A2D513FC33FDFEFF222465
:10035700E0500474FF80EFF404FAE4CCCDCECF80F4
:100367000DC3EF13FFEE13FEED13FDEC13FCDAF1F3
:1003770020D507EECDFEEFCCFF22E4C39CFCE49D25
:10038700FDE49EFEE49FCCFFEECDFE22EFC2E7FF29
:1003970080A47A083392D5E4FDFEFF30D50312031B
:1003A7002CEC334010EF33FFEE33FEED33FDEC332F
:1003B700FCDAEE80BEEA247EA2D513CC92E7CDCE3E
:0303C700FF80B004
:0203CA007E8033
:1003CC00EF5E6004D2818002C281D28000C28000C4
:1003DC0075F002EE84FEB40001D350E4D281D280D9
:0B03EC0000A281E433F521C280002252
:0403F7007E007D8087
:1003FB00D28000308103EE4DFEC2800075F002ED1D
:10040B0084FDB40001D350E8BF0104D2818002C245
:0C041B0081D28000C28000D2818E0722B6
:020427008F0440
:100429001200038C071203CAE521B4010312001A52
:10043900E521640160EA8D071203CA8B071203CA1A
:0304490002001A94
:02044C008F041B
:10044E001200038C071203CAE521B4010312001A2D
:10045E00E521640160EA8D071203CA12001A120028
:0F046E0003EC04FF1203CA7F011203F702001A06
:10047D00EF540FFA75F010EF8475F00AA42AFF22DD
:10048D0075F00AEF84AAF075F00AEF84C454F02ACF
:02049D00FF223C
:04049F00EE4F6007B5
:0804A300EF1F70F81E80F52226
:0804AB008E048F05EC4D600E7C
:0F04B300E4FE7F7012049FED1D70F11C80EE229D
:0504C200EF2430FF22D1
:0904C700D285D282D284D28322B4
:0304D000C28522C0
:0304D300D28522AD
:0504D6008F0D750E0002
:1004DB00E50D20E704C2848002D284C2821205504B
:1004EB00D282E50DC333F50D050EE50EB408E122FE
:0504FB00E4F50DF50E13
:09050000E50DC333F50D30830253
:02050900050DDE
:10050B00C282120550D282050EE50EB408E7AF0D7C
:01051B0022BD
:07051C008F0DE4F50EF50F51
:09052300E50EC333F50E3083022E
:02052C00050EBA
:10052E00E50D20E704C2848002D284C282120550F7
:10053E00D282E50DC333F50D050FE50FB408D6AF26
:02054E000E227B
:02055000002287
:100552000FF03FF06730FF00FF3337663FF06FF078
:100562006770EF339F6637663FE00FF0673067339F
:10057200000037663FF00FF06770CE33FF0013665E
:100582003FF06FF067703333066666660FF06FF008
:1005920067700000066666663FE00FF06730FF3363
:1005A200133037660FF07FF00770FF00FF77770098
:1005B200FFF0FFF077700000000000003FE0000055
:1005C20066000EFF0FFF6777FFE0FFF077707FC8CE
:1005D20008FF7710FFF0FFF0777033330000000060
:1005E2000FF00FF03770FF00FF0877310FF0EFF0D8
:1005F2001770FFC8FF3F77003EC00FF06310CE3385
:10060200FF0013660FF06FF067700000CE6637666A
:100612003EE00FF06310DE7BFF0013668FF07FF089
:10062200677037ECCE67376633206EC06730EF33C2
:1006320037662666F000F000766000FF00FF6677FE
:100642003FE00FF00770EF33FF0077006C800FF090
:1006520007708C63FF0077006FF00FF00770FF6C7C
:10066200FF0077000FF07D0007707F000D727700AA
:10067200F0007EC0077000FFCE777700BFF0310038
:10068200666033338EE777660000000000000000EA
:10069200000000003FE00FF06730EF33FF003766E5
:1006A200F330F000731033FF00FF0077FF7010800B
:1006B2006730333BCE733766332033006620EF3327
:1006C200CF333766000037F03100FFF0FFF3777663
:1006D20033203FE06730EF33133326663FE06FF09D
:1006E2006730EF3337662666000033006620FF006E
:1006F200FF3337663FE03FC06730AF33CF333766F3
:1007020033203FE06730EF33FF33376600000000ED
:1007120000000000000000000000000000000000D7
:1007220000000000000000000000000000000000C7
:1007320000000000000000000000000000000000B7
:1007420000000000000000000000000000000000A7
:100752000000000000000000000000000000000097
:100762000000000000000000000000000000000087
:100772000000000000000000000000000000000077
:100782000000000000000000000000000000000067
:100792000000000000000000000000000000000057
:1007A2000000000000000000000000000000000047
:1007B2000000000000000000000000000000000037
:1007C2000000000000000000000000000000000027
:1007D2000000000000000000000077700000000030
:1007E200777700000FF0EFF04550FFC8FF17554430
:1007F20000000000000000000000000000000000F7
:1008020000000000000000000000000000000000E6
:1008120000000000000000000000000000000000D6
:1008220000000000000000000000000000000000C6
:1008320000000000000000000000000000000000B6
:1008420000000000000000000000000000000000A6
:100852000000000000000000000000000000000096
:100862000000000000000000000000000000000086
:100872000000000000000000000000000000000076
:100882000000000000000000000000000000000066
:100892000000000000000000000000000000000056
:1008A2000000000000000000000000000000000046
:1008B2000000000000000000000000000000000036
:1008C2000000000000000000000000000000000026
:1008D2000000000000000000000000000000000016
:1008E2000000000000000000000000000000000006
:1008F20000000000000000000000000000000000F6
:1009020000000000000000000000000000000000E5
:1009120000000000000000000000000033FE00FFA5
:10092200CCF700EF00FF007FFF33FF00FF620033D0
:1009320000000000BFF73100CCE7003300EF007F7A
:1009420033326660CCC400EF009F007F000066EE89
:10095200C63100FF00FF00FF333266ECCCF700EF38
:100962000037004C33FE66FFCCF700EF0037004C37
:1009720000006660CCC400FF00FF007F33FE66F912
:10098200CCF700EF009F007F333266ECCCF700EF2C
:0409920000FF007FE3
:10099600C287D2011204C7120A74120D78120D957D
:1009A600120A97121679856108AF63AD62AB6812B9
:1009B6001705E561B40A02C287E561B40F01D340A9
:1009C60005B41900400FE561B42801D3402DE56157
:0509D600B432005026C0
:1009DB00120D95E4FCF54CC200AE4AAF4B7D0A12EA
:1009EB0000C9EFFAAE4AAF4BE4FC7D0A1200C98A8C
:0609FB00071213358064B1
:100A0100120D95AF68120F1F75F00AE5628485F02B
:100A11000875F00AE56384FF75F00AE56384ADF0BB
:100A210075F00AE56284FB120F76120EF7E54CB4FD
:040A31000500501755
:100A3500C2ACE4FF120C2FE54E2FF54EE54D3EF509
:070A45004DD2AC054C8019F5
:030A4C0020001671
:100A4F00AE4DAF4EE4FC7D051200C98E4A8F4BE4CC
:100A5F00F54DF54ED20012163D1215C21214A21208
:050A6F000DF40209A6D0
:100A7400758921758DFD759850D2ACD2BCD2BBD28C
:100A84008E758C00758A00D2A9D28C7550FFC2B2C3
:030A9400D2AF22BC
:100A97007FD0E4FD12044C8F617FD07D0112044C9E
:100AA7008F627FD07D0212044C8F637FD07D03124B
:100AB700044C8F647FD07D0412044C8F657FD07DFA
:100AC7000512044C8F667FD07D0612044C8F672277
:100AD7001200037FD01203CAE4FF1203CAAF6112E8
:100AE70003CAAF621203CAAF631203CAAF64120329
:100AF700CAAF651203CAAF661203CAAF671203CA49
:030B070002001ACF
:100B0A00C0E0C0F0C083C082C0D0C000C001C00233
:100B1A00C003C004C005C006C00775100030980C99
:030B2A0020B209ED
:100B2D00859910C298E510701BD007D006D005D05E
:100B3D0004D003D002D001D000D0D0D082D083D049
:080B4D00F0D0E032E54F70101A
:050B5500E510B43A2E8A
:0B0B5A00E54F054F2422F8A610802371
:100B6500AA4F054FEA79222422F8A610E54FB428AA
:030B75000050101D
:0D0B7800E914254FF8E6640A6003B60D038A
:030B8500120B8AC6
:020B880080AC3F
:050B8A00E523B4482E34
:100B8F00852461852562852663852764852865858B
:100B9F002966852A67E52BB45003756801E52BB4E8
:100BAF0041037568001216BB120AD7E4F54FE5230F
:030BBF00B4436CD0
:100BC200852412751300751100E511B51201D35079
:010BD2001C06
:100BD3007428C39511F513E54F24FEC39511242200
:100BE300F8E5132422F9E6F7051180DC751100E519
:100BF30011B51201D3501025132422F8E511242D29
:100C0300F9E6F7051180E8E4F553F554F555C2010B
:100C130075560BF557F558F559F55AF55BF55CF52F
:0B0C23005DF55E120D78D201E4F54F84
:010C2E0022A3
:100C2F008F087F06E508B40301D34004EF4401FFAA
:100C3F001204D01204D6E508030354C0FF12051C9A
:100C4F008F0953090F1204FB8F0A1204D3AC09E565
:100C5F000AC333CC33CCF50C8C0BE5087047E4FC9E
:100C6F00FDAE0BAF0C120339C004C005C006C007A0
:100C7F00E4FCFD7EA07F40120161C004C005C006E8
:100C8F00C007E4FCFD7E807F39120161C004C005FE
:100C9F00C006C007E4FCFD7EC87F4212016112034B
:100CAF003D8E0B8F0CE508B40147E4FCFDAE0BAF96
:100CBF000C120339C004C005C006C007E4FCFD7E5A
:100CCF00A07F40120161C004C005C006C007E4FC4C
:100CDF00FD7E807F39120161C004C005C006C007C8
:100CEF00E4FCFD7E207F4112016112033D8E0B8FCC
:060CFF000CAE0BAF0C224D
:0F0D0500C0E0C0D0C000C002C003C28C30B61E18
:100D1400C2B674FFC39550F552E49400F55174FFC4
:0E0D2400C39551F58C74FFC39552F58A801665
:100D3200D2B675510085505274FFC39551F58C742B
:100D4200FFC39552F58AC28DD28CD003D002D00057
:050D5200D0D0D0E0321A
:030D5700BB010FCE
:0F0D5A008D0008EF8005C333CE33CED8F9FF22CA
:0F0D69008D0008EE8005C313CF13CFD8F9FE22FB
:100D78007F007E00EE2EFAEF75F00CA424692AF8A5
:0D0D8800E4F608F60EBE03EC0FBF0AE622EB
:100D95007F007E03EE2EFAEF75F00CA424692AF885
:0D0DA500E4F608F60EBE06EC0FBF0AE622CB
:100DB200D2B6E4FE7F011204ABD2B5E4FE7F01128B
:0E0DC20004ABC2B5E4FE7F011204ABC2B62240
:100DD0007A008D000874018005C333CA33CAD8F97C
:100DE0005FF8EA5EAB00B40004BB0001D3E440014D
:040DF0000424FF22B6
:100DF400E4FE7F011204ABC2B4E4FE7F011204AB33
:030E04007508006E
:030E07007509006A
:100E0A00E50825082469F88606088607AD097C00E6
:100E1A00120DD09290E50825082475F886060886F2
:100E2A0007AD09120DD09291E50825082481F886AC
:100E3A0006088607AD09120DD092A6E508250824F2
:100E4A008DF88606088607AD09120DD092A7E50827
:100E5A0025082499F88606088607AD09120DD0924E
:100E6A00A4E508250824A5F88606088607AD091210
:100E7A000DD092A5E508250824B1F886060886074C
:100E8A00AD09120DD092A2E508250824BDF8860600
:100E9A00088607AD09120DD092A3E508250824C9D2
:100EAA00F88606088607AD09120DD092A0E5082536
:100EBA000824D5F88606088607AD09120DD092A136
:100ECA00D2B4E4FE7F011204ABC2B4E4FE7F011285
:100EDA0004AB0509E509B410028003020E0A0508ED
:0D0EEA00E508B406028003020E07020DB2F7
:100EF700799F09E744CCFB19E7F709A70379A1090B
:100F0700E74488FB19E7F709A70379A309E7441121
:080F1700FB19E7F709A703220B
:030F1F00EF702848
:100F220079CF77240977F079D177880977E079D377
:100F3200774409773079DBE4F70977F479DDF7094B
:0B0F420077E879DFF7097734BF01285A
:100F4D0079CF77240977F079D177880977E079D34C
:100F5D00774409773079DBE4F70977F479DDF70920
:090F6D00770879DFF709773422D7
:0A0F76008F098D0A8B0BE50970232B
:030F8000750C03EA
:100F8300E50C250C2469F8E4F608F6E50C250C2499
:100F930075F8E4F608F6050CE50CB406E302103226
:030FA300750C03C7
:100FA600E50C250C2469F8E4F608F6E50C25E024A2
:100FB60024F582E43409F583E493FE740193FF7DFE
:100FC600087B01120D57E50C250C2469F8A60608C6
:100FD6007600E50C25E0242AF582E43409F583E45D
:100FE60093FEEB93FF120D577F00C006C007E50C7A
:100FF60025E02424F582E43409F583E493FEEB939B
:10100600FFE4FB120D57D0E04FF55ED0E0F55DE54D
:101016000C250C2475F8E4F608F618A65D08A65EFD
:0F102600050CE50CB406028003020FA6750C033F
:10103500E50C250C2481F8E4F608F6E50C25E0FD21
:10104500E50A75F00CA4241EF582E43409F583E560
:101055008224FAFFE58334FFFEED2FF582E43EF5A9
:1010650083E493FE740193FF7D047B01120D57EF1A
:1010750054F0FFE50C250C2481F8A60608A607E523
:101085000C25E0FDE50A75F00CA42424F582E43472
:1010950009F583E58224FAFFE58334FFFEED2FF59C
:1010A50082E43EF583E493FEEB93FF7D04120D5736
:1010B500EF54F0FFEE540FFEC006C007E50C25E027
:1010C500FF7E00C006C007E50A75F00CA4241EF5D6
:1010D50082E43409F583E58224FAFFE58334FFFED3
:1010E500D0E02FF582D0E03EF583E493FEEB93FF4D
:1010F5007D0CE4FB120D57EF540FFFD0E04FF55E6A
:10110500D0E0F55DE50C250C248DF8E4F608F6181D
:10111500A65D08A65EE50C25E0FDE50875F00CA4C6
:101125002424F582E43409F583E58224FAFFE58376
:1011350034FFFEED2FF582E43EF583E493FE740162
:1011450093FF7D080B120D577F00C006C007E50C05
:1011550025E0FF7E00C006C007E50875F00CA42455
:101165001EF582E43409F583E58224FAFFE583342C
:10117500FFFED0E02FF582D0E03EF583E493FEEB51
:1011850093FFE4FB120D57D0E04FF55ED0E0F55D1F
:10119500E50C250CFE24BDF8E4F608F618A65D0856
:1011A500A65EEE2499F8E4F608F6E50C250C2499DC
:1011B500F8C000E6C0E008E6C0E0E50C25E0FDE586
:1011C5000B75F00CA4241EF582E43409F583E58241
:1011D50024FAFFE58334FFFEED2FF582E43EF58327
:1011E500E493FE740193FF7D0C0B120D57EE54F042
:1011F500FED007D0E04ED001F709A707E50C25E0A2
:10120500FDE50B75F00CA42424F582E43409F5837F
:10121500E58224FAFFE58334FFFEED2FF582E43EF7
:10122500F583E493FEEB93FF7D0C120D57EE7F00E3
:1012350054F0FEC006C007E50C25E0FF7E00C006A1
:10124500C007E50B8DF0A4241EF582E43409F5836F
:10125500E58224FAFFE58334FFFED0E02FF582D046
:10126500E03EF583E493FEEB93FF7D04E4FB120D72
:1012750057EE540FFED0E04FF55ED0E04EF55DE53C
:101285000C250CFE24A5F8E4F608F618A65D08A6BC
:101295005EEE24B1F8E4F608F6E50C25E0FDE50878
:1012A50075F00CA4241EF582E43409F583E5822447
:1012B500FAFFE58334FFFEED2FF582E43EF583E486
:1012C50093FE740193FF7D080B120D577F00C00636
:1012D500C007E50C25E0FF7E00C006C007E50B75DD
:1012E500F00CA42424F582E43409F583E58224FA7C
:1012F500FFE58334FFFED0E02FF582D0E03EF58395
:10130500E493FEEB93FF7D04E4FB120D57EF540FBE
:10131500FFD0E04FFFD006E50C250C24B1F8A6065A
:1013250008A607050CE50CB4060280030210352259
:071335008F088D09750A0302
:10133C00E50A25E0FDE50875F00CA4241EF582E411
:10134C003409F583E58224FAFFE58334FFFEED2FA3
:10135C00F582E43EF583E50A250A2475F8E493F654
:10136C0008740193F6E50A25E0FDE50875F00CA478
:10137C002424F582E43409F583E58224FAFFE5831D
:10138C0034FFFEED2FF582E43EF583E50A250A24B1
:10139C0081F8E493F608740193F6E50A25E0FDE57F
:1013AC000975F00CA4241EF582E43409F583E5825A
:1013BC0024FAFFE58334FFFEED2FF582E43EF5833E
:1013CC00E50A250A248DF8E493F608740193F6E5F2
:1013DC000A25E0FDE50975F00CA42424F582E4341B
:1013EC0009F583E58224FAFFE58334FFFEED2FF542
:1013FC0082E43EF583E50A250A2499F8E493F6087D
:10140C00740193F6050AE50AB40602800302133C44
:10141C0079ABE4F709F779AD77C809F779AF77F7C6
:10142C0009F779B7F709F779B9778C0977CC79BBD4
:10143C00777F0977CC79C377FE09F779C577FF09F0
:10144C00F779C777F709F779CF776709773379D1C8
:0B145C00F709F779D3776E0977CC22EF
:10146700BF30004009BF3901D350037F0122BF615C
:10147700004009BF7A01D35003E4FF22BF41004077
:1014870009BF5A01D350037F0322EF64106009EFAD
:0B14970064116004EFB412027F022217
:0314A200750800CA
:1014A500E5082508FB7A00C002C003E55875F0067B
:1014B500A4FDE55575F00CA4FFC0F0C0078557F0F5
:1014C5009005527E017F4412008CD0E02582F58282
:1014D500D0E03583F583ED2582F582E43583F58308
:1014E500D0E02582F582D0E03583F583E493FE7460
:1014F5000193FFE55925E025E0FDE4FB120D57EFCB
:06150500540FF5538A09A2
:10150B00E5082508FA7409C3950975F00CA424693C
:10151B002AF808E6540FF5547409C3950975F00CB5
:10152B00A424692AF886060886077D04E4FB120DBD
:10153B0057EE8F5E540FF55DAF537E007D0C0B1293
:10154B000D57EE54F0F55B755C00455DFAE508252B
:10155B0008FE7409C395098DF0A424692EF8A60220
:10156B0008A65E8554530509E509B40A930508E5F9
:0E157B0008B4030280030214A5E559B4033638
:10158900E4F559E5577008E555B40803755801E5C0
:1015990057B40208E555B40203755801E558B4017A
:0115A900122F
:0F15AA00E4F558D201E557B40207E555B4030242
:0315B900055A22AE
:0315BC00055822AD
:0315BF00055922A9
:0315C2003001777E
:1015C500E52D240BF8E433AB00F5F0B2F77480B5E4
:0915D500F005E556B50300504D88
:1015DE00C2010556E5562422F886071214678F5766
:1015EE00BF010AE5562422F8E624D0F555E55770DA
:1015FE000AE5562422F8E6249FF555E557B4030D67
:10160E00E4F557E5562422F8E624BFF555E557B420
:0D161E00021CE5562422F8E624F0F55522C2
:0B162B00755702755503E55AB404061C
:0716360075560BE4F55A2282
:10163D007F01120C2F8E5F8F60E55FB40006E560B1
:06164D00B40801D35004B3
:10165300E4F55022E55FB40006E560B42901D350F8
:0E16630011E55FB40006E560B40801D3400451
:0416710075507D2211
:041675007550FF228B
:10167900E56320E505756800800375680153631FFC
:10168900AF6112047D8F61AF6212047D8F62AF6317
:1016990012047D8F63AF6412047D8F64AF651204F9
:1016A9007D8F65AF6612047D8F66AF6712047D8FEB
:0216B9006722A6
:1016BB00AF6112048D8F61AF6212048D8F62AF63C5
:1016CB0012048D8F63AF6412048D8F64AF651204A7
:1016DB008D8F65AF6612048D8F66AF6712048D8F89
:1016EB0067E5632440F563E568B40106E5632420F0
:0A16FB00F563E568700353635F2296
:0D170500BF080CBD1E09BB0006E508700200
:0F171200D287BF090CBD3709BB0006E50870027E
:0F172100D287BF0A0CBD0509BB0006E5087002A0
:0F173000D287BF0B0CBD1E09BB0006E508700277
:0F173F00D287BF0B0CBD2809BB0006E50870025E
:0F174E00D287BF010CBD0509BB0106E50870027B
:0F175D00D287BF010CBD0F09BB0106E508700262
:0F176C00D287BF020CBD2809BB0106E508700239
:0F177B00D287BF020CBD3209BB0106E508700220
:0F178A00D287BF040CBD0F09BB0106E508700232
:0F179900D287BF040CBD1909BB0106E508700219
:0F17A800D287BF050CBD3209BB0106E5087002F0
:0317B700D28722B4
:1017BA00A0223A4801010101010101010103464940
:1017CA0045000000000000000000000000000000CA
:1017DA0000000000000000000000084A001D045636
:0117EA000BF3
:0117EB0000FD
:00000001FF
